{
  "contractName": "BloodBank",
  "abi": [
    {
      "inputs": [],
      "stateMutability": "nonpayable",
      "type": "constructor"
    },
    {
      "anonymous": false,
      "inputs": [
        {
          "indexed": false,
          "internalType": "address",
          "name": "admin",
          "type": "address"
        }
      ],
      "name": "AdminLoggedIn",
      "type": "event"
    },
    {
      "anonymous": false,
      "inputs": [
        {
          "indexed": false,
          "internalType": "address",
          "name": "donor",
          "type": "address"
        },
        {
          "indexed": false,
          "internalType": "enum BloodBank.BloodType",
          "name": "bloodType",
          "type": "uint8"
        },
        {
          "indexed": false,
          "internalType": "uint256",
          "name": "amount",
          "type": "uint256"
        }
      ],
      "name": "BloodDonated",
      "type": "event"
    },
    {
      "anonymous": false,
      "inputs": [
        {
          "indexed": false,
          "internalType": "address",
          "name": "patient",
          "type": "address"
        },
        {
          "indexed": false,
          "internalType": "enum BloodBank.BloodType",
          "name": "bloodType",
          "type": "uint8"
        }
      ],
      "name": "BloodRequested",
      "type": "event"
    },
    {
      "anonymous": false,
      "inputs": [
        {
          "indexed": false,
          "internalType": "address",
          "name": "patient",
          "type": "address"
        },
        {
          "components": [
            {
              "internalType": "bool",
              "name": "isResponded",
              "type": "bool"
            },
            {
              "internalType": "enum BloodBank.BloodType",
              "name": "bloodType",
              "type": "uint8"
            },
            {
              "internalType": "uint256",
              "name": "amount",
              "type": "uint256"
            },
            {
              "internalType": "bool",
              "name": "response",
              "type": "bool"
            }
          ],
          "indexed": false,
          "internalType": "struct BloodBank.Request",
          "name": "request",
          "type": "tuple"
        }
      ],
      "name": "BloodRequested",
      "type": "event"
    },
    {
      "anonymous": false,
      "inputs": [
        {
          "indexed": false,
          "internalType": "address",
          "name": "donor",
          "type": "address"
        }
      ],
      "name": "DonorPermissionGranted",
      "type": "event"
    },
    {
      "anonymous": false,
      "inputs": [
        {
          "indexed": false,
          "internalType": "address",
          "name": "donor",
          "type": "address"
        }
      ],
      "name": "DonorPermissionRevoked",
      "type": "event"
    },
    {
      "anonymous": false,
      "inputs": [
        {
          "indexed": false,
          "internalType": "address",
          "name": "donor",
          "type": "address"
        },
        {
          "indexed": false,
          "internalType": "string",
          "name": "name",
          "type": "string"
        },
        {
          "indexed": false,
          "internalType": "enum BloodBank.BloodType",
          "name": "bloodType",
          "type": "uint8"
        }
      ],
      "name": "DonorRegistered",
      "type": "event"
    },
    {
      "anonymous": false,
      "inputs": [
        {
          "indexed": false,
          "internalType": "address",
          "name": "hospital",
          "type": "address"
        },
        {
          "indexed": false,
          "internalType": "string",
          "name": "name",
          "type": "string"
        },
        {
          "indexed": false,
          "internalType": "address",
          "name": "location",
          "type": "address"
        }
      ],
      "name": "HospitalRegistered",
      "type": "event"
    },
    {
      "anonymous": false,
      "inputs": [
        {
          "indexed": false,
          "internalType": "address",
          "name": "patient",
          "type": "address"
        }
      ],
      "name": "PatientPermissionGranted",
      "type": "event"
    },
    {
      "anonymous": false,
      "inputs": [
        {
          "indexed": false,
          "internalType": "address",
          "name": "patient",
          "type": "address"
        }
      ],
      "name": "PatientPermissionRevoked",
      "type": "event"
    },
    {
      "anonymous": false,
      "inputs": [
        {
          "indexed": false,
          "internalType": "address",
          "name": "patient",
          "type": "address"
        },
        {
          "indexed": false,
          "internalType": "string",
          "name": "name",
          "type": "string"
        },
        {
          "indexed": false,
          "internalType": "enum BloodBank.BloodType",
          "name": "bloodType",
          "type": "uint8"
        }
      ],
      "name": "PatientRegistered",
      "type": "event"
    },
    {
      "anonymous": false,
      "inputs": [
        {
          "indexed": false,
          "internalType": "address",
          "name": "patient",
          "type": "address"
        },
        {
          "indexed": false,
          "internalType": "bool",
          "name": "response",
          "type": "bool"
        },
        {
          "indexed": false,
          "internalType": "enum BloodBank.BloodType",
          "name": "bloodType",
          "type": "uint8"
        },
        {
          "indexed": false,
          "internalType": "uint256",
          "name": "amount",
          "type": "uint256"
        }
      ],
      "name": "RequestResponded",
      "type": "event"
    },
    {
      "inputs": [],
      "name": "admin",
      "outputs": [
        {
          "internalType": "address",
          "name": "",
          "type": "address"
        }
      ],
      "stateMutability": "view",
      "type": "function",
      "constant": true
    },
    {
      "inputs": [
        {
          "internalType": "address",
          "name": "",
          "type": "address"
        }
      ],
      "name": "allowedDonors",
      "outputs": [
        {
          "internalType": "bool",
          "name": "",
          "type": "bool"
        }
      ],
      "stateMutability": "view",
      "type": "function",
      "constant": true
    },
    {
      "inputs": [
        {
          "internalType": "address",
          "name": "",
          "type": "address"
        }
      ],
      "name": "allowedPatients",
      "outputs": [
        {
          "internalType": "bool",
          "name": "",
          "type": "bool"
        }
      ],
      "stateMutability": "view",
      "type": "function",
      "constant": true
    },
    {
      "inputs": [
        {
          "internalType": "enum BloodBank.BloodType",
          "name": "",
          "type": "uint8"
        }
      ],
      "name": "bloodInventory",
      "outputs": [
        {
          "internalType": "uint256",
          "name": "",
          "type": "uint256"
        }
      ],
      "stateMutability": "view",
      "type": "function",
      "constant": true
    },
    {
      "inputs": [
        {
          "internalType": "address",
          "name": "",
          "type": "address"
        }
      ],
      "name": "bloodRequests",
      "outputs": [
        {
          "internalType": "bool",
          "name": "",
          "type": "bool"
        }
      ],
      "stateMutability": "view",
      "type": "function",
      "constant": true
    },
    {
      "inputs": [
        {
          "internalType": "uint256",
          "name": "",
          "type": "uint256"
        }
      ],
      "name": "donorAddresses",
      "outputs": [
        {
          "internalType": "address",
          "name": "",
          "type": "address"
        }
      ],
      "stateMutability": "view",
      "type": "function",
      "constant": true
    },
    {
      "inputs": [
        {
          "internalType": "address",
          "name": "",
          "type": "address"
        },
        {
          "internalType": "enum BloodBank.BloodType",
          "name": "",
          "type": "uint8"
        }
      ],
      "name": "donorBalances",
      "outputs": [
        {
          "internalType": "uint256",
          "name": "",
          "type": "uint256"
        }
      ],
      "stateMutability": "view",
      "type": "function",
      "constant": true
    },
    {
      "inputs": [
        {
          "internalType": "address",
          "name": "",
          "type": "address"
        }
      ],
      "name": "donors",
      "outputs": [
        {
          "internalType": "string",
          "name": "name",
          "type": "string"
        },
        {
          "internalType": "enum BloodBank.BloodType",
          "name": "bloodType",
          "type": "uint8"
        },
        {
          "internalType": "bool",
          "name": "isRegistered",
          "type": "bool"
        }
      ],
      "stateMutability": "view",
      "type": "function",
      "constant": true
    },
    {
      "inputs": [
        {
          "internalType": "address",
          "name": "",
          "type": "address"
        }
      ],
      "name": "hospitals",
      "outputs": [
        {
          "internalType": "string",
          "name": "name",
          "type": "string"
        },
        {
          "internalType": "address",
          "name": "location",
          "type": "address"
        },
        {
          "internalType": "bool",
          "name": "isRegistered",
          "type": "bool"
        }
      ],
      "stateMutability": "view",
      "type": "function",
      "constant": true
    },
    {
      "inputs": [
        {
          "internalType": "uint256",
          "name": "",
          "type": "uint256"
        }
      ],
      "name": "patientAddresses",
      "outputs": [
        {
          "internalType": "address",
          "name": "",
          "type": "address"
        }
      ],
      "stateMutability": "view",
      "type": "function",
      "constant": true
    },
    {
      "inputs": [
        {
          "internalType": "address",
          "name": "",
          "type": "address"
        },
        {
          "internalType": "enum BloodBank.BloodType",
          "name": "",
          "type": "uint8"
        },
        {
          "internalType": "uint256",
          "name": "",
          "type": "uint256"
        }
      ],
      "name": "patientRequests",
      "outputs": [
        {
          "internalType": "bool",
          "name": "isResponded",
          "type": "bool"
        },
        {
          "internalType": "enum BloodBank.BloodType",
          "name": "bloodType",
          "type": "uint8"
        },
        {
          "internalType": "uint256",
          "name": "amount",
          "type": "uint256"
        },
        {
          "internalType": "bool",
          "name": "response",
          "type": "bool"
        }
      ],
      "stateMutability": "view",
      "type": "function",
      "constant": true
    },
    {
      "inputs": [
        {
          "internalType": "address",
          "name": "",
          "type": "address"
        },
        {
          "internalType": "uint256",
          "name": "",
          "type": "uint256"
        }
      ],
      "name": "patientResponses",
      "outputs": [
        {
          "internalType": "bool",
          "name": "isResponded",
          "type": "bool"
        },
        {
          "internalType": "enum BloodBank.BloodType",
          "name": "bloodType",
          "type": "uint8"
        },
        {
          "internalType": "uint256",
          "name": "amount",
          "type": "uint256"
        },
        {
          "internalType": "bool",
          "name": "response",
          "type": "bool"
        }
      ],
      "stateMutability": "view",
      "type": "function",
      "constant": true
    },
    {
      "inputs": [
        {
          "internalType": "address",
          "name": "",
          "type": "address"
        }
      ],
      "name": "patients",
      "outputs": [
        {
          "internalType": "string",
          "name": "name",
          "type": "string"
        },
        {
          "internalType": "enum BloodBank.BloodType",
          "name": "bloodType",
          "type": "uint8"
        },
        {
          "internalType": "bool",
          "name": "isRegistered",
          "type": "bool"
        }
      ],
      "stateMutability": "view",
      "type": "function",
      "constant": true
    },
    {
      "inputs": [],
      "name": "totalBloodDonated",
      "outputs": [
        {
          "internalType": "uint256",
          "name": "",
          "type": "uint256"
        }
      ],
      "stateMutability": "view",
      "type": "function",
      "constant": true
    },
    {
      "inputs": [],
      "name": "totalDonors",
      "outputs": [
        {
          "internalType": "uint256",
          "name": "",
          "type": "uint256"
        }
      ],
      "stateMutability": "view",
      "type": "function",
      "constant": true
    },
    {
      "inputs": [],
      "name": "totalHospitals",
      "outputs": [
        {
          "internalType": "uint256",
          "name": "",
          "type": "uint256"
        }
      ],
      "stateMutability": "view",
      "type": "function",
      "constant": true
    },
    {
      "inputs": [],
      "name": "totalPatients",
      "outputs": [
        {
          "internalType": "uint256",
          "name": "",
          "type": "uint256"
        }
      ],
      "stateMutability": "view",
      "type": "function",
      "constant": true
    },
    {
      "inputs": [],
      "name": "adminLogin",
      "outputs": [
        {
          "internalType": "bool",
          "name": "",
          "type": "bool"
        }
      ],
      "stateMutability": "nonpayable",
      "type": "function"
    },
    {
      "inputs": [
        {
          "internalType": "address",
          "name": "donorAddress",
          "type": "address"
        }
      ],
      "name": "grantDonorPermission",
      "outputs": [],
      "stateMutability": "nonpayable",
      "type": "function"
    },
    {
      "inputs": [
        {
          "internalType": "address",
          "name": "donorAddress",
          "type": "address"
        }
      ],
      "name": "revokeDonorPermission",
      "outputs": [],
      "stateMutability": "nonpayable",
      "type": "function"
    },
    {
      "inputs": [
        {
          "internalType": "address",
          "name": "donorAddress",
          "type": "address"
        }
      ],
      "name": "isDonorAllowed",
      "outputs": [
        {
          "internalType": "bool",
          "name": "",
          "type": "bool"
        }
      ],
      "stateMutability": "view",
      "type": "function",
      "constant": true
    },
    {
      "inputs": [
        {
          "internalType": "address",
          "name": "patientAddress",
          "type": "address"
        }
      ],
      "name": "grantPatientPermission",
      "outputs": [],
      "stateMutability": "nonpayable",
      "type": "function"
    },
    {
      "inputs": [
        {
          "internalType": "address",
          "name": "patientAddress",
          "type": "address"
        }
      ],
      "name": "revokePatientPermission",
      "outputs": [],
      "stateMutability": "nonpayable",
      "type": "function"
    },
    {
      "inputs": [
        {
          "internalType": "address",
          "name": "patientAddress",
          "type": "address"
        }
      ],
      "name": "isPatientAllowed",
      "outputs": [
        {
          "internalType": "bool",
          "name": "",
          "type": "bool"
        }
      ],
      "stateMutability": "view",
      "type": "function",
      "constant": true
    },
    {
      "inputs": [
        {
          "internalType": "address",
          "name": "patientAddress",
          "type": "address"
        },
        {
          "internalType": "string",
          "name": "name",
          "type": "string"
        },
        {
          "internalType": "enum BloodBank.BloodType",
          "name": "bloodType",
          "type": "uint8"
        }
      ],
      "name": "addPatient",
      "outputs": [],
      "stateMutability": "nonpayable",
      "type": "function"
    },
    {
      "inputs": [
        {
          "internalType": "address",
          "name": "hospitalAddress",
          "type": "address"
        },
        {
          "internalType": "string",
          "name": "name",
          "type": "string"
        },
        {
          "internalType": "address",
          "name": "location",
          "type": "address"
        }
      ],
      "name": "addHospital",
      "outputs": [],
      "stateMutability": "nonpayable",
      "type": "function"
    },
    {
      "inputs": [
        {
          "internalType": "string",
          "name": "name",
          "type": "string"
        },
        {
          "internalType": "enum BloodBank.BloodType",
          "name": "bloodType",
          "type": "uint8"
        }
      ],
      "name": "registerAsDonor",
      "outputs": [],
      "stateMutability": "nonpayable",
      "type": "function"
    },
    {
      "inputs": [
        {
          "internalType": "string",
          "name": "name",
          "type": "string"
        },
        {
          "internalType": "enum BloodBank.BloodType",
          "name": "bloodType",
          "type": "uint8"
        }
      ],
      "name": "registerAsPatient",
      "outputs": [],
      "stateMutability": "nonpayable",
      "type": "function"
    },
    {
      "inputs": [
        {
          "internalType": "address",
          "name": "hospitalAddress",
          "type": "address"
        }
      ],
      "name": "locateHospitalToDonate",
      "outputs": [
        {
          "internalType": "string",
          "name": "name",
          "type": "string"
        },
        {
          "internalType": "address",
          "name": "location",
          "type": "address"
        }
      ],
      "stateMutability": "view",
      "type": "function",
      "constant": true
    },
    {
      "inputs": [
        {
          "internalType": "enum BloodBank.BloodType",
          "name": "bloodType",
          "type": "uint8"
        },
        {
          "internalType": "uint256",
          "name": "amount",
          "type": "uint256"
        }
      ],
      "name": "donateBlood",
      "outputs": [],
      "stateMutability": "nonpayable",
      "type": "function"
    },
    {
      "inputs": [],
      "name": "getTotalBloodDonated",
      "outputs": [
        {
          "internalType": "uint256",
          "name": "",
          "type": "uint256"
        }
      ],
      "stateMutability": "view",
      "type": "function",
      "constant": true
    },
    {
      "inputs": [
        {
          "internalType": "enum BloodBank.BloodType",
          "name": "bloodType",
          "type": "uint8"
        }
      ],
      "name": "getBloodInventory",
      "outputs": [
        {
          "internalType": "uint256",
          "name": "",
          "type": "uint256"
        }
      ],
      "stateMutability": "view",
      "type": "function",
      "constant": true
    },
    {
      "inputs": [
        {
          "internalType": "enum BloodBank.BloodType",
          "name": "bloodType",
          "type": "uint8"
        },
        {
          "internalType": "uint256",
          "name": "amount",
          "type": "uint256"
        }
      ],
      "name": "requestBlood",
      "outputs": [],
      "stateMutability": "nonpayable",
      "type": "function"
    },
    {
      "inputs": [
        {
          "internalType": "address",
          "name": "patientAddress",
          "type": "address"
        },
        {
          "internalType": "enum BloodBank.BloodType",
          "name": "bloodType",
          "type": "uint8"
        }
      ],
      "name": "getPatientRequests",
      "outputs": [
        {
          "components": [
            {
              "internalType": "bool",
              "name": "isResponded",
              "type": "bool"
            },
            {
              "internalType": "enum BloodBank.BloodType",
              "name": "bloodType",
              "type": "uint8"
            },
            {
              "internalType": "uint256",
              "name": "amount",
              "type": "uint256"
            },
            {
              "internalType": "bool",
              "name": "response",
              "type": "bool"
            }
          ],
          "internalType": "struct BloodBank.Request[]",
          "name": "",
          "type": "tuple[]"
        }
      ],
      "stateMutability": "view",
      "type": "function",
      "constant": true
    },
    {
      "inputs": [
        {
          "internalType": "address",
          "name": "patientAddress",
          "type": "address"
        },
        {
          "internalType": "enum BloodBank.BloodType",
          "name": "bloodType",
          "type": "uint8"
        },
        {
          "internalType": "bool",
          "name": "response",
          "type": "bool"
        }
      ],
      "name": "respondToRequest",
      "outputs": [],
      "stateMutability": "nonpayable",
      "type": "function"
    },
    {
      "inputs": [
        {
          "internalType": "address",
          "name": "patientAddress",
          "type": "address"
        }
      ],
      "name": "getPatientResponses",
      "outputs": [
        {
          "components": [
            {
              "internalType": "bool",
              "name": "isResponded",
              "type": "bool"
            },
            {
              "internalType": "enum BloodBank.BloodType",
              "name": "bloodType",
              "type": "uint8"
            },
            {
              "internalType": "uint256",
              "name": "amount",
              "type": "uint256"
            },
            {
              "internalType": "bool",
              "name": "response",
              "type": "bool"
            }
          ],
          "internalType": "struct BloodBank.Request[]",
          "name": "",
          "type": "tuple[]"
        }
      ],
      "stateMutability": "view",
      "type": "function",
      "constant": true
    },
    {
      "inputs": [],
      "name": "getRegisteredUsers",
      "outputs": [
        {
          "internalType": "address[]",
          "name": "registeredDonors",
          "type": "address[]"
        },
        {
          "internalType": "address[]",
          "name": "registeredPatients",
          "type": "address[]"
        }
      ],
      "stateMutability": "view",
      "type": "function",
      "constant": true
    }
  ],
  "bytecode": "0x608060405234801561001057600080fd5b50336000806101000a81548173ffffffffffffffffffffffffffffffffffffffff021916908373ffffffffffffffffffffffffffffffffffffffff160217905550613ebb806100606000396000f3fe608060405234801561001057600080fd5b50600436106102275760003560e01c806378771fb311610130578063b9de02c0116100b8578063deb5ef091161007c578063deb5ef0914610702578063e7620e7714610720578063f093cf8014610750578063f1744bb114610782578063f851a440146107a057610227565b8063b9de02c01461064a578063ba3e7aae1461067a578063c0bca7df14610696578063ca0cdea8146106b4578063da0b7c10146106e657610227565b80639b0652b4116100ff5780639b0652b4146105825780639b71377f1461059e578063b40f1691146105ce578063b753098b146105fe578063b8a2d4421461061a57610227565b806378771fb3146104fe5780637e4ed03d1461052e578063894b8f0c1461054a578063958b865c1461056657610227565b8063271473d1116101b357806345a7d1c71161018257806345a7d1c7146104335780636d661d53146104635780637073c0721461047f57806375844cd11461049e57806376cd7083146104ce57610227565b8063271473d11461036d5780632b2aee5d1461039d5780632bac19a2146103cd578063440bfe561461040057610227565b80631927b768116101fa5780631927b768146102c65780631e9e2290146102e457806325c302e414610300578063265c30c91461031e57806326838ae31461033c57610227565b806303a14b421461022c578063063da53a146102485780630869cfbc146102645780630a1c8e6814610296575b600080fd5b61024660048036038101906102419190612dee565b6107be565b005b610262600480360381019061025d9190612dee565b6108dc565b005b61027e60048036038101906102799190612dee565b6109fb565b60405161028d939291906138d3565b60405180910390f35b6102b060048036038101906102ab9190612dee565b610ac7565b6040516102bd9190613805565b60405180910390f35b6102ce610b1d565b6040516102db9190613a91565b60405180910390f35b6102fe60048036038101906102f99190612e53565b610b23565b005b610308611054565b6040516103159190613a91565b60405180910390f35b61032661105a565b6040516103339190613a91565b60405180910390f35b61035660048036038101906103519190612dee565b611060565b604051610364929190613865565b60405180910390f35b61038760048036038101906103829190612dee565b61122d565b60405161039491906137e3565b60405180910390f35b6103b760048036038101906103b291906130b4565b611392565b6040516103c49190613670565b60405180910390f35b6103e760048036038101906103e29190612ea2565b6113d1565b6040516103f79493929190613820565b60405180910390f35b61041a60048036038101906104159190612fbf565b611452565b60405161042a9493929190613820565b60405180910390f35b61044d60048036038101906104489190612dee565b6114c6565b60405161045a9190613805565b60405180910390f35b61047d60048036038101906104789190613024565b61151c565b005b6104876116d9565b6040516104959291906137ac565b60405180910390f35b6104b860048036038101906104b39190612ffb565b6117f8565b6040516104c59190613a91565b60405180910390f35b6104e860048036038101906104e39190612dee565b611810565b6040516104f59190613805565b60405180910390f35b61051860048036038101906105139190612e17565b611830565b6040516105259190613a91565b60405180910390f35b61054860048036038101906105439190612dee565b611855565b005b610564600480360381019061055f9190613024565b611973565b005b610580600480360381019061057b9190612dee565b611c33565b005b61059c60048036038101906105979190613060565b611d52565b005b6105b860048036038101906105b39190612e17565b611f37565b6040516105c591906137e3565b60405180910390f35b6105e860048036038101906105e391906130b4565b61220a565b6040516105f59190613670565b60405180910390f35b61061860048036038101906106139190613060565b612249565b005b610634600480360381019061062f9190612ffb565b61242e565b6040516106419190613a91565b60405180910390f35b610664600480360381019061065f9190612dee565b6124bb565b6040516106719190613805565b60405180910390f35b610694600480360381019061068f9190612ef1565b6124db565b005b61069e61274b565b6040516106ab9190613805565b60405180910390f35b6106ce60048036038101906106c99190612dee565b61278b565b6040516106dd939291906138d3565b60405180910390f35b61070060048036038101906106fb9190612f58565b612857565b005b61070a612af8565b6040516107179190613a91565b60405180910390f35b61073a60048036038101906107359190612dee565b612afe565b6040516107479190613805565b60405180910390f35b61076a60048036038101906107659190612dee565b612b1e565b60405161077993929190613895565b60405180910390f35b61078a612bfd565b6040516107979190613a91565b60405180910390f35b6107a8612c07565b6040516107b59190613670565b60405180910390f35b600a60008273ffffffffffffffffffffffffffffffffffffffff1673ffffffffffffffffffffffffffffffffffffffff16815260200190815260200160002060009054906101000a900460ff1661084a576040517f08c379a000000000000000000000000000000000000000000000000000000000815260040161084190613a31565b60405180910390fd5b6000600a60008373ffffffffffffffffffffffffffffffffffffffff1673ffffffffffffffffffffffffffffffffffffffff16815260200190815260200160002060006101000a81548160ff0219169083151502179055507f0d75f4177f5c2ba083d1f9ed47e125806407c82e261facc56bfed13d3295f085816040516108d19190613670565b60405180910390a150565b600a60008273ffffffffffffffffffffffffffffffffffffffff1673ffffffffffffffffffffffffffffffffffffffff16815260200190815260200160002060009054906101000a900460ff1615610969576040517f08c379a000000000000000000000000000000000000000000000000000000000815260040161096090613951565b60405180910390fd5b6001600a60008373ffffffffffffffffffffffffffffffffffffffff1673ffffffffffffffffffffffffffffffffffffffff16815260200190815260200160002060006101000a81548160ff0219169083151502179055507f6470588e45881bf48bc4406748c2c44819598eae7041fca47408b90f441242c6816040516109f09190613670565b60405180910390a150565b6008602052806000526040600020600091509050806000018054610a1e90613cd4565b80601f0160208091040260200160405190810160405280929190818152602001828054610a4a90613cd4565b8015610a975780601f10610a6c57610100808354040283529160200191610a97565b820191906000526020600020905b815481529060010190602001808311610a7a57829003601f168201915b5050505050908060010160009054906101000a900460ff16908060010160019054906101000a900460ff16905083565b6000600a60008373ffffffffffffffffffffffffffffffffffffffff1673ffffffffffffffffffffffffffffffffffffffff16815260200190815260200160002060009054906101000a900460ff169050919050565b60045481565b600860008473ffffffffffffffffffffffffffffffffffffffff1673ffffffffffffffffffffffffffffffffffffffff16815260200190815260200160002060010160019054906101000a900460ff16610bb2576040517f08c379a0000000000000000000000000000000000000000000000000000000008152600401610ba9906139d1565b60405180910390fd5b6000600f60008573ffffffffffffffffffffffffffffffffffffffff1673ffffffffffffffffffffffffffffffffffffffff1681526020019081526020016000206000846003811115610c2e577f4e487b7100000000000000000000000000000000000000000000000000000000600052602160045260246000fd5b6003811115610c66577f4e487b7100000000000000000000000000000000000000000000000000000000600052602160045260246000fd5b81526020019081526020016000208054905011610cb8576040517f08c379a0000000000000000000000000000000000000000000000000000000008152600401610caf90613911565b60405180910390fd5b6000600f60008573ffffffffffffffffffffffffffffffffffffffff1673ffffffffffffffffffffffffffffffffffffffff1681526020019081526020016000206000846003811115610d34577f4e487b7100000000000000000000000000000000000000000000000000000000600052602160045260246000fd5b6003811115610d6c577f4e487b7100000000000000000000000000000000000000000000000000000000600052602160045260246000fd5b81526020019081526020016000206001600f60008773ffffffffffffffffffffffffffffffffffffffff1673ffffffffffffffffffffffffffffffffffffffff1681526020019081526020016000206000866003811115610df6577f4e487b7100000000000000000000000000000000000000000000000000000000600052602160045260246000fd5b6003811115610e2e577f4e487b7100000000000000000000000000000000000000000000000000000000600052602160045260246000fd5b815260200190815260200160002080549050610e4a9190613bf1565b81548110610e81577f4e487b7100000000000000000000000000000000000000000000000000000000600052603260045260246000fd5b9060005260206000209060030201905060018160000160006101000a81548160ff021916908315150217905550818160020160006101000a81548160ff021916908315150217905550601060008573ffffffffffffffffffffffffffffffffffffffff1673ffffffffffffffffffffffffffffffffffffffff1681526020019081526020016000208190806001815401808255809150506001900390600052602060002090600302016000909190919091506000820160009054906101000a900460ff168160000160006101000a81548160ff0219169083151502179055506000820160019054906101000a900460ff168160000160016101000a81548160ff02191690836003811115610fbe577f4e487b7100000000000000000000000000000000000000000000000000000000600052602160045260246000fd5b0217905550600182015481600101556002820160009054906101000a900460ff168160020160006101000a81548160ff02191690831515021790555050507f0cb0eecdc646f95300ff59a3649e7f113854102f55590a186a114bdea39a68d884838360000160019054906101000a900460ff168460010154604051611046949392919061368b565b60405180910390a150505050565b60015481565b60035481565b60606000600960008473ffffffffffffffffffffffffffffffffffffffff1673ffffffffffffffffffffffffffffffffffffffff16815260200190815260200160002060010160149054906101000a900460ff166110f3576040517f08c379a00000000000000000000000000000000000000000000000000000000081526004016110ea906139f1565b60405180910390fd5b600960008473ffffffffffffffffffffffffffffffffffffffff1673ffffffffffffffffffffffffffffffffffffffff168152602001908152602001600020600001600960008573ffffffffffffffffffffffffffffffffffffffff1673ffffffffffffffffffffffffffffffffffffffff16815260200190815260200160002060010160009054906101000a900473ffffffffffffffffffffffffffffffffffffffff168180546111a490613cd4565b80601f01602080910402602001604051908101604052809291908181526020018280546111d090613cd4565b801561121d5780601f106111f25761010080835404028352916020019161121d565b820191906000526020600020905b81548152906001019060200180831161120057829003601f168201915b5050505050915091509150915091565b6060601060008373ffffffffffffffffffffffffffffffffffffffff1673ffffffffffffffffffffffffffffffffffffffff168152602001908152602001600020805480602002602001604051908101604052809291908181526020016000905b8282101561138757838290600052602060002090600302016040518060800160405290816000820160009054906101000a900460ff161515151581526020016000820160019054906101000a900460ff166003811115611317577f4e487b7100000000000000000000000000000000000000000000000000000000600052602160045260246000fd5b600381111561134f577f4e487b7100000000000000000000000000000000000000000000000000000000600052602160045260246000fd5b8152602001600182015481526020016002820160009054906101000a900460ff1615151515815250508152602001906001019061128e565b505050509050919050565b600581815481106113a257600080fd5b906000526020600020016000915054906101000a900473ffffffffffffffffffffffffffffffffffffffff1681565b600f60205282600052604060002060205281600052604060002081815481106113f957600080fd5b906000526020600020906003020160009250925050508060000160009054906101000a900460ff16908060000160019054906101000a900460ff16908060010154908060020160009054906101000a900460ff16905084565b6010602052816000526040600020818154811061146e57600080fd5b9060005260206000209060030201600091509150508060000160009054906101000a900460ff16908060000160019054906101000a900460ff16908060010154908060020160009054906101000a900460ff16905084565b6000600b60008373ffffffffffffffffffffffffffffffffffffffff1673ffffffffffffffffffffffffffffffffffffffff16815260200190815260200160002060009054906101000a900460ff169050919050565b600760003373ffffffffffffffffffffffffffffffffffffffff1673ffffffffffffffffffffffffffffffffffffffff16815260200190815260200160002060010160019054906101000a900460ff166115ab576040517f08c379a00000000000000000000000000000000000000000000000000000000081526004016115a290613971565b60405180910390fd5b600e60003373ffffffffffffffffffffffffffffffffffffffff1673ffffffffffffffffffffffffffffffffffffffff1681526020019081526020016000206000836003811115611625577f4e487b7100000000000000000000000000000000000000000000000000000000600052602160045260246000fd5b600381111561165d577f4e487b7100000000000000000000000000000000000000000000000000000000600052602160045260246000fd5b8152602001908152602001600020600081548092919061167c90613d06565b919050555080600460008282546116939190613b9b565b925050819055507fc2f0fc24f51c0d69bcb224db3f20a529782afccd9cf749ccf983ae933ed08b813383836040516116cd939291906136d0565b60405180910390a15050565b606080600560068180548060200260200160405190810160405280929190818152602001828054801561176157602002820191906000526020600020905b8160009054906101000a900473ffffffffffffffffffffffffffffffffffffffff1673ffffffffffffffffffffffffffffffffffffffff1681526020019060010190808311611717575b50505050509150808054806020026020016040519081016040528092919081815260200182805480156117e957602002820191906000526020600020905b8160009054906101000a900473ffffffffffffffffffffffffffffffffffffffff1673ffffffffffffffffffffffffffffffffffffffff168152602001906001019080831161179f575b50505050509050915091509091565b600d6020528060005260406000206000915090505481565b600a6020528060005260406000206000915054906101000a900460ff1681565b600e602052816000526040600020602052806000526040600020600091509150505481565b600b60008273ffffffffffffffffffffffffffffffffffffffff1673ffffffffffffffffffffffffffffffffffffffff16815260200190815260200160002060009054906101000a900460ff166118e1576040517f08c379a00000000000000000000000000000000000000000000000000000000081526004016118d890613a11565b60405180910390fd5b6000600b60008373ffffffffffffffffffffffffffffffffffffffff1673ffffffffffffffffffffffffffffffffffffffff16815260200190815260200160002060006101000a81548160ff0219169083151502179055507f50b4f48c2b29bd3719894342dd2c27e3890b43d1fd5353022887ba15c8a8cf3e816040516119689190613670565b60405180910390a150565b600860003373ffffffffffffffffffffffffffffffffffffffff1673ffffffffffffffffffffffffffffffffffffffff16815260200190815260200160002060010160019054906101000a900460ff16611a02576040517f08c379a00000000000000000000000000000000000000000000000000000000081526004016119f9906139b1565b60405180910390fd5b60006040518060800160405280600015158152602001846003811115611a51577f4e487b7100000000000000000000000000000000000000000000000000000000600052602160045260246000fd5b8152602001838152602001600015158152509050600f60003373ffffffffffffffffffffffffffffffffffffffff1673ffffffffffffffffffffffffffffffffffffffff168152602001908152602001600020600082602001516003811115611ae3577f4e487b7100000000000000000000000000000000000000000000000000000000600052602160045260246000fd5b6003811115611b1b577f4e487b7100000000000000000000000000000000000000000000000000000000600052602160045260246000fd5b815260200190815260200160002081908060018154018082558091505060019003906000526020600020906003020160009091909190915060008201518160000160006101000a81548160ff02191690831515021790555060208201518160000160016101000a81548160ff02191690836003811115611bc4577f4e487b7100000000000000000000000000000000000000000000000000000000600052602160045260246000fd5b02179055506040820151816001015560608201518160020160006101000a81548160ff02191690831515021790555050507fe0fd22686cb831b16f1f01cedcbd518d72c259a8bd2bca74f4ffe066159b783f3382604051611c26929190613783565b60405180910390a1505050565b600b60008273ffffffffffffffffffffffffffffffffffffffff1673ffffffffffffffffffffffffffffffffffffffff16815260200190815260200160002060009054906101000a900460ff1615611cc0576040517f08c379a0000000000000000000000000000000000000000000000000000000008152600401611cb790613a51565b60405180910390fd5b6001600b60008373ffffffffffffffffffffffffffffffffffffffff1673ffffffffffffffffffffffffffffffffffffffff16815260200190815260200160002060006101000a81548160ff0219169083151502179055507f173926a5cd76513113da8c73e33cd759abb380c3fa117a8e50bbe24fd69e71b181604051611d479190613670565b60405180910390a150565b6040518060600160405280838152602001826003811115611d9c577f4e487b7100000000000000000000000000000000000000000000000000000000600052602160045260246000fd5b815260200160011515815250600760003373ffffffffffffffffffffffffffffffffffffffff1673ffffffffffffffffffffffffffffffffffffffff1681526020019081526020016000206000820151816000019080519060200190611e03929190612c2b565b5060208201518160010160006101000a81548160ff02191690836003811115611e55577f4e487b7100000000000000000000000000000000000000000000000000000000600052602160045260246000fd5b021790555060408201518160010160016101000a81548160ff0219169083151502179055509050506005339080600181540180825580915050600190039060005260206000200160009091909190916101000a81548173ffffffffffffffffffffffffffffffffffffffff021916908373ffffffffffffffffffffffffffffffffffffffff16021790555060016000815480929190611ef390613d06565b91905055507f779163cb568883acd4f53ecd8b9b240d9167817266c43fa521301a32e8fd290b338383604051611f2b93929190613745565b60405180910390a15050565b60606000600f60008573ffffffffffffffffffffffffffffffffffffffff1673ffffffffffffffffffffffffffffffffffffffff1681526020019081526020016000206000846003811115611fb5577f4e487b7100000000000000000000000000000000000000000000000000000000600052602160045260246000fd5b6003811115611fed577f4e487b7100000000000000000000000000000000000000000000000000000000600052602160045260246000fd5b815260200190815260200160002090506000818054905067ffffffffffffffff811115612043577f4e487b7100000000000000000000000000000000000000000000000000000000600052604160045260246000fd5b60405190808252806020026020018201604052801561207c57816020015b612069612cb1565b8152602001906001900390816120615790505b50905060005b82805490508110156121fe578281815481106120c7577f4e487b7100000000000000000000000000000000000000000000000000000000600052603260045260246000fd5b90600052602060002090600302016040518060800160405290816000820160009054906101000a900460ff161515151581526020016000820160019054906101000a900460ff166003811115612146577f4e487b7100000000000000000000000000000000000000000000000000000000600052602160045260246000fd5b600381111561217e577f4e487b7100000000000000000000000000000000000000000000000000000000600052602160045260246000fd5b8152602001600182015481526020016002820160009054906101000a900460ff1615151515815250508282815181106121e0577f4e487b7100000000000000000000000000000000000000000000000000000000600052603260045260246000fd5b602002602001018190525080806121f690613d06565b915050612082565b50809250505092915050565b6006818154811061221a57600080fd5b906000526020600020016000915054906101000a900473ffffffffffffffffffffffffffffffffffffffff1681565b6040518060600160405280838152602001826003811115612293577f4e487b7100000000000000000000000000000000000000000000000000000000600052602160045260246000fd5b815260200160011515815250600860003373ffffffffffffffffffffffffffffffffffffffff1673ffffffffffffffffffffffffffffffffffffffff16815260200190815260200160002060008201518160000190805190602001906122fa929190612c2b565b5060208201518160010160006101000a81548160ff0219169083600381111561234c577f4e487b7100000000000000000000000000000000000000000000000000000000600052602160045260246000fd5b021790555060408201518160010160016101000a81548160ff0219169083151502179055509050506006339080600181540180825580915050600190039060005260206000200160009091909190916101000a81548173ffffffffffffffffffffffffffffffffffffffff021916908373ffffffffffffffffffffffffffffffffffffffff160217905550600260008154809291906123ea90613d06565b91905055507fd0279fc6af44cae89320e43efb9a695b3185662c6ada09288e9d440caa4543a633838360405161242293929190613745565b60405180910390a15050565b6000600d600083600381111561246d577f4e487b7100000000000000000000000000000000000000000000000000000000600052602160045260246000fd5b60038111156124a5577f4e487b7100000000000000000000000000000000000000000000000000000000600052602160045260246000fd5b8152602001908152602001600020549050919050565b600b6020528060005260406000206000915054906101000a900460ff1681565b60008054906101000a900473ffffffffffffffffffffffffffffffffffffffff1673ffffffffffffffffffffffffffffffffffffffff163373ffffffffffffffffffffffffffffffffffffffff1614612569576040517f08c379a000000000000000000000000000000000000000000000000000000000815260040161256090613931565b60405180910390fd5b600960008473ffffffffffffffffffffffffffffffffffffffff1673ffffffffffffffffffffffffffffffffffffffff16815260200190815260200160002060010160149054906101000a900460ff16156125f9576040517f08c379a00000000000000000000000000000000000000000000000000000000081526004016125f090613a71565b60405180910390fd5b60405180606001604052808381526020018273ffffffffffffffffffffffffffffffffffffffff16815260200160011515815250600960008573ffffffffffffffffffffffffffffffffffffffff1673ffffffffffffffffffffffffffffffffffffffff1681526020019081526020016000206000820151816000019080519060200190612688929190612c2b565b5060208201518160010160006101000a81548173ffffffffffffffffffffffffffffffffffffffff021916908373ffffffffffffffffffffffffffffffffffffffff16021790555060408201518160010160146101000a81548160ff0219169083151502179055509050506003600081548092919061270690613d06565b91905055507fa2c0805b2d96cb9d515bef0880a6f601672ee7dd7b3f3b29e86c9b552e4661c883838360405161273e93929190613707565b60405180910390a1505050565b60007fb59f440754e07ccf4f8158d21ab17643d0854c21b74aaffee912ad01931b22833360405161277c9190613670565b60405180910390a16001905090565b60076020528060005260406000206000915090508060000180546127ae90613cd4565b80601f01602080910402602001604051908101604052809291908181526020018280546127da90613cd4565b80156128275780601f106127fc57610100808354040283529160200191612827565b820191906000526020600020905b81548152906001019060200180831161280a57829003601f168201915b5050505050908060010160009054906101000a900460ff16908060010160019054906101000a900460ff16905083565b60008054906101000a900473ffffffffffffffffffffffffffffffffffffffff1673ffffffffffffffffffffffffffffffffffffffff163373ffffffffffffffffffffffffffffffffffffffff16146128e5576040517f08c379a00000000000000000000000000000000000000000000000000000000081526004016128dc90613931565b60405180910390fd5b600860008473ffffffffffffffffffffffffffffffffffffffff1673ffffffffffffffffffffffffffffffffffffffff16815260200190815260200160002060010160019054906101000a900460ff1615612975576040517f08c379a000000000000000000000000000000000000000000000000000000000815260040161296c90613991565b60405180910390fd5b60405180606001604052808381526020018260038111156129bf577f4e487b7100000000000000000000000000000000000000000000000000000000600052602160045260246000fd5b815260200160011515815250600860008573ffffffffffffffffffffffffffffffffffffffff1673ffffffffffffffffffffffffffffffffffffffff1681526020019081526020016000206000820151816000019080519060200190612a26929190612c2b565b5060208201518160010160006101000a81548160ff02191690836003811115612a78577f4e487b7100000000000000000000000000000000000000000000000000000000600052602160045260246000fd5b021790555060408201518160010160016101000a81548160ff02191690831515021790555090505060026000815480929190612ab390613d06565b91905055507fd0279fc6af44cae89320e43efb9a695b3185662c6ada09288e9d440caa4543a6838383604051612aeb93929190613745565b60405180910390a1505050565b60025481565b600c6020528060005260406000206000915054906101000a900460ff1681565b6009602052806000526040600020600091509050806000018054612b4190613cd4565b80601f0160208091040260200160405190810160405280929190818152602001828054612b6d90613cd4565b8015612bba5780601f10612b8f57610100808354040283529160200191612bba565b820191906000526020600020905b815481529060010190602001808311612b9d57829003601f168201915b5050505050908060010160009054906101000a900473ffffffffffffffffffffffffffffffffffffffff16908060010160149054906101000a900460ff16905083565b6000600454905090565b60008054906101000a900473ffffffffffffffffffffffffffffffffffffffff1681565b828054612c3790613cd4565b90600052602060002090601f016020900481019282612c595760008555612ca0565b82601f10612c7257805160ff1916838001178555612ca0565b82800160010185558215612ca0579182015b82811115612c9f578251825591602001919060010190612c84565b5b509050612cad9190612d15565b5090565b604051806080016040528060001515815260200160006003811115612cff577f4e487b7100000000000000000000000000000000000000000000000000000000600052602160045260246000fd5b8152602001600081526020016000151581525090565b5b80821115612d2e576000816000905550600101612d16565b5090565b6000612d45612d4084613add565b613aac565b905082815260208101848484011115612d5d57600080fd5b612d68848285613c92565b509392505050565b600081359050612d7f81613e30565b92915050565b600081359050612d9481613e47565b92915050565b600081359050612da981613e5e565b92915050565b600082601f830112612dc057600080fd5b8135612dd0848260208601612d32565b91505092915050565b600081359050612de881613e6e565b92915050565b600060208284031215612e0057600080fd5b6000612e0e84828501612d70565b91505092915050565b60008060408385031215612e2a57600080fd5b6000612e3885828601612d70565b9250506020612e4985828601612d9a565b9150509250929050565b600080600060608486031215612e6857600080fd5b6000612e7686828701612d70565b9350506020612e8786828701612d9a565b9250506040612e9886828701612d85565b9150509250925092565b600080600060608486031215612eb757600080fd5b6000612ec586828701612d70565b9350506020612ed686828701612d9a565b9250506040612ee786828701612dd9565b9150509250925092565b600080600060608486031215612f0657600080fd5b6000612f1486828701612d70565b935050602084013567ffffffffffffffff811115612f3157600080fd5b612f3d86828701612daf565b9250506040612f4e86828701612d70565b9150509250925092565b600080600060608486031215612f6d57600080fd5b6000612f7b86828701612d70565b935050602084013567ffffffffffffffff811115612f9857600080fd5b612fa486828701612daf565b9250506040612fb586828701612d9a565b9150509250925092565b60008060408385031215612fd257600080fd5b6000612fe085828601612d70565b9250506020612ff185828601612dd9565b9150509250929050565b60006020828403121561300d57600080fd5b600061301b84828501612d9a565b91505092915050565b6000806040838503121561303757600080fd5b600061304585828601612d9a565b925050602061305685828601612dd9565b9150509250929050565b6000806040838503121561307357600080fd5b600083013567ffffffffffffffff81111561308d57600080fd5b61309985828601612daf565b92505060206130aa85828601612d9a565b9150509250929050565b6000602082840312156130c657600080fd5b60006130d484828501612dd9565b91505092915050565b60006130e9838361310d565b60208301905092915050565b600061310183836135a8565b60808301905092915050565b61311681613c25565b82525050565b61312581613c25565b82525050565b600061313682613b2d565b6131408185613b68565b935061314b83613b0d565b8060005b8381101561317c57815161316388826130dd565b975061316e83613b4e565b92505060018101905061314f565b5085935050505092915050565b600061319482613b38565b61319e8185613b79565b93506131a983613b1d565b8060005b838110156131da5781516131c188826130f5565b97506131cc83613b5b565b9250506001810190506131ad565b5085935050505092915050565b6131f081613c37565b82525050565b6131ff81613c37565b82525050565b61320e81613c80565b82525050565b61321d81613c80565b82525050565b600061322e82613b43565b6132388185613b8a565b9350613248818560208601613ca1565b61325181613e0b565b840191505092915050565b6000613269601f83613b8a565b91507f4e6f20626c6f6f6420646f6e6174696f6e207265717565737420666f756e64006000830152602082019050919050565b60006132a9602683613b8a565b91507f4f6e6c79207468652061646d696e2063616e20706572666f726d20746869732060008301527f616374696f6e00000000000000000000000000000000000000000000000000006020830152604082019050919050565b600061330f601c83613b8a565b91507f446f6e6f7220616c726561647920686173207065726d697373696f6e000000006000830152602082019050919050565b600061334f601483613b8a565b91507f446f6e6f72206e6f7420726567697374657265640000000000000000000000006000830152602082019050919050565b600061338f601a83613b8a565b91507f50617469656e7420616c726561647920726567697374657265640000000000006000830152602082019050919050565b60006133cf602783613b8a565b91507f596f75206e65656420746f20726567697374657220617320612070617469656e60008301527f74206669727374000000000000000000000000000000000000000000000000006020830152604082019050919050565b6000613435601683613b8a565b91507f50617469656e74206e6f742072656769737465726564000000000000000000006000830152602082019050919050565b6000613475601783613b8a565b91507f486f73706974616c206e6f7420726567697374657265640000000000000000006000830152602082019050919050565b60006134b5602083613b8a565b91507f50617469656e7420646f6573206e6f742068617665207065726d697373696f6e6000830152602082019050919050565b60006134f5601e83613b8a565b91507f446f6e6f7220646f6573206e6f742068617665207065726d697373696f6e00006000830152602082019050919050565b6000613535601e83613b8a565b91507f50617469656e7420616c726561647920686173207065726d697373696f6e00006000830152602082019050919050565b6000613575601b83613b8a565b91507f486f73706974616c20616c7265616479207265676973746572656400000000006000830152602082019050919050565b6080820160008201516135be60008501826131e7565b5060208201516135d16020850182613205565b5060408201516135e46040850182613652565b5060608201516135f760608501826131e7565b50505050565b60808201600082015161361360008501826131e7565b5060208201516136266020850182613205565b5060408201516136396040850182613652565b50606082015161364c60608501826131e7565b50505050565b61365b81613c76565b82525050565b61366a81613c76565b82525050565b6000602082019050613685600083018461311c565b92915050565b60006080820190506136a0600083018761311c565b6136ad60208301866131f6565b6136ba6040830185613214565b6136c76060830184613661565b95945050505050565b60006060820190506136e5600083018661311c565b6136f26020830185613214565b6136ff6040830184613661565b949350505050565b600060608201905061371c600083018661311c565b818103602083015261372e8185613223565b905061373d604083018461311c565b949350505050565b600060608201905061375a600083018661311c565b818103602083015261376c8185613223565b905061377b6040830184613214565b949350505050565b600060a082019050613798600083018561311c565b6137a560208301846135fd565b9392505050565b600060408201905081810360008301526137c6818561312b565b905081810360208301526137da818461312b565b90509392505050565b600060208201905081810360008301526137fd8184613189565b905092915050565b600060208201905061381a60008301846131f6565b92915050565b600060808201905061383560008301876131f6565b6138426020830186613214565b61384f6040830185613661565b61385c60608301846131f6565b95945050505050565b6000604082019050818103600083015261387f8185613223565b905061388e602083018461311c565b9392505050565b600060608201905081810360008301526138af8186613223565b90506138be602083018561311c565b6138cb60408301846131f6565b949350505050565b600060608201905081810360008301526138ed8186613223565b90506138fc6020830185613214565b61390960408301846131f6565b949350505050565b6000602082019050818103600083015261392a8161325c565b9050919050565b6000602082019050818103600083015261394a8161329c565b9050919050565b6000602082019050818103600083015261396a81613302565b9050919050565b6000602082019050818103600083015261398a81613342565b9050919050565b600060208201905081810360008301526139aa81613382565b9050919050565b600060208201905081810360008301526139ca816133c2565b9050919050565b600060208201905081810360008301526139ea81613428565b9050919050565b60006020820190508181036000830152613a0a81613468565b9050919050565b60006020820190508181036000830152613a2a816134a8565b9050919050565b60006020820190508181036000830152613a4a816134e8565b9050919050565b60006020820190508181036000830152613a6a81613528565b9050919050565b60006020820190508181036000830152613a8a81613568565b9050919050565b6000602082019050613aa66000830184613661565b92915050565b6000604051905081810181811067ffffffffffffffff82111715613ad357613ad2613ddc565b5b8060405250919050565b600067ffffffffffffffff821115613af857613af7613ddc565b5b601f19601f8301169050602081019050919050565b6000819050602082019050919050565b6000819050602082019050919050565b600081519050919050565b600081519050919050565b600081519050919050565b6000602082019050919050565b6000602082019050919050565b600082825260208201905092915050565b600082825260208201905092915050565b600082825260208201905092915050565b6000613ba682613c76565b9150613bb183613c76565b9250827fffffffffffffffffffffffffffffffffffffffffffffffffffffffffffffffff03821115613be657613be5613d4f565b5b828201905092915050565b6000613bfc82613c76565b9150613c0783613c76565b925082821015613c1a57613c19613d4f565b5b828203905092915050565b6000613c3082613c56565b9050919050565b60008115159050919050565b6000819050613c5182613e1c565b919050565b600073ffffffffffffffffffffffffffffffffffffffff82169050919050565b6000819050919050565b6000613c8b82613c43565b9050919050565b82818337600083830152505050565b60005b83811015613cbf578082015181840152602081019050613ca4565b83811115613cce576000848401525b50505050565b60006002820490506001821680613cec57607f821691505b60208210811415613d0057613cff613dad565b5b50919050565b6000613d1182613c76565b91507fffffffffffffffffffffffffffffffffffffffffffffffffffffffffffffffff821415613d4457613d43613d4f565b5b600182019050919050565b7f4e487b7100000000000000000000000000000000000000000000000000000000600052601160045260246000fd5b7f4e487b7100000000000000000000000000000000000000000000000000000000600052602160045260246000fd5b7f4e487b7100000000000000000000000000000000000000000000000000000000600052602260045260246000fd5b7f4e487b7100000000000000000000000000000000000000000000000000000000600052604160045260246000fd5b6000601f19601f8301169050919050565b60048110613e2d57613e2c613d7e565b5b50565b613e3981613c25565b8114613e4457600080fd5b50565b613e5081613c37565b8114613e5b57600080fd5b50565b60048110613e6b57600080fd5b50565b613e7781613c76565b8114613e8257600080fd5b5056fea26469706673582212204b0c5ff4a37e14f0ba74a2a73f8c7ea38ce6e14c4cbedf976179c90b9395b05164736f6c63430008000033",
  "immutableReferences": {},
  "source": "// SPDX-License-Identifier: MIT\npragma solidity ^0.8.0;\n\ncontract BloodBank {\n    address public admin;\n    uint public totalDonors;\n    uint public totalPatients;\n    uint public totalHospitals;\n    uint public totalBloodDonated;\n\n    address[] public donorAddresses;\n    address[] public patientAddresses;\n\n    enum BloodType { A, B, AB, O }\n\n    struct Donor {\n        string name;\n        BloodType bloodType;\n        bool isRegistered;\n    }\n\n    struct Patient {\n        string name;\n        BloodType bloodType;\n        bool isRegistered;\n    }\n\n    struct Hospital {\n        string name;\n        address location;\n        bool isRegistered;\n    }\n\n    struct Request {\n    bool isResponded;\n    BloodType bloodType;\n    uint amount;\n    bool response;\n   }\n\n   \n    mapping(address => Donor) public donors;\n    mapping(address => Patient) public patients;\n    mapping(address => Hospital) public hospitals;\n    mapping(address => bool) public allowedDonors;\n    mapping(address => bool) public allowedPatients;\n    mapping(address => bool) public bloodRequests;\n    mapping(BloodType => uint) public bloodInventory;\n    mapping(address => mapping(BloodType => uint)) public donorBalances;\n    mapping(address => mapping(BloodType => Request[])) public patientRequests;\n    mapping(address => Request[]) public patientResponses; // Add mapping to store responses\n\n    event AdminLoggedIn(address admin);\n    event DonorRegistered(address donor, string name, BloodType bloodType);\n    event PatientRegistered(address patient, string name, BloodType bloodType);\n    event HospitalRegistered(address hospital, string name, address location);\n    event BloodDonated(address donor, BloodType bloodType, uint amount);\n    event BloodRequested(address patient, BloodType bloodType);\n    event DonorPermissionGranted(address donor);\n    event DonorPermissionRevoked(address donor);\n    event PatientPermissionGranted(address patient);\n    event PatientPermissionRevoked(address patient);\n    event RequestResponded(address patient, bool response, BloodType bloodType, uint amount);\n    event BloodRequested(address patient, Request request);\n\n    modifier isAdmin() {\n        require(msg.sender == admin, \"Only the admin can perform this action\");\n        _;\n    }\n    modifier onlyAdminOrPatient() {\n        require(msg.sender == admin || allowedPatients[msg.sender], \"Permission denied\");\n        _;\n    }\n\n    constructor() {\n        admin = msg.sender;\n    }\n\n    function adminLogin() public returns (bool) {\n        emit AdminLoggedIn(msg.sender);\n        return true;\n    }\n\n    function grantDonorPermission(address donorAddress) public {\n        require(!allowedDonors[donorAddress], \"Donor already has permission\");\n        allowedDonors[donorAddress] = true;\n        emit DonorPermissionGranted(donorAddress);\n    }\n\n    function revokeDonorPermission(address donorAddress) public {\n        require(allowedDonors[donorAddress], \"Donor does not have permission\");\n        allowedDonors[donorAddress] = false;\n        emit DonorPermissionRevoked(donorAddress);\n    }\n\n    function isDonorAllowed(address donorAddress) public view returns (bool) {\n        return allowedDonors[donorAddress];\n    }\n\n    function grantPatientPermission(address patientAddress) public {\n        require(!allowedPatients[patientAddress], \"Patient already has permission\");\n        allowedPatients[patientAddress] = true;\n        emit PatientPermissionGranted(patientAddress);\n    }\n\n    function revokePatientPermission(address patientAddress) public {\n        require(allowedPatients[patientAddress], \"Patient does not have permission\");\n        allowedPatients[patientAddress] = false;\n        emit PatientPermissionRevoked(patientAddress);\n    }\n\n    function isPatientAllowed(address patientAddress) public view returns (bool) {\n        return allowedPatients[patientAddress];\n    }\n\n    function addPatient(address patientAddress, string memory name, BloodType bloodType) public isAdmin {\n        require(!patients[patientAddress].isRegistered, \"Patient already registered\");\n        patients[patientAddress] = Patient(name, bloodType, true);\n        totalPatients++;\n        emit PatientRegistered(patientAddress, name, bloodType);\n    }\n\n    function addHospital(address hospitalAddress, string memory name, address location) public isAdmin {\n        require(!hospitals[hospitalAddress].isRegistered, \"Hospital already registered\");\n        hospitals[hospitalAddress] = Hospital(name, location, true);\n        totalHospitals++;\n        emit HospitalRegistered(hospitalAddress, name, location);\n    }\n\n    function registerAsDonor(string memory name, BloodType bloodType) public {\n        donors[msg.sender] = Donor(name, bloodType, true);\n        donorAddresses.push(msg.sender);\n        totalDonors++;\n        emit DonorRegistered(msg.sender, name, bloodType);\n    }\n\n    function registerAsPatient(string memory name, BloodType bloodType) public {\n        patients[msg.sender] = Patient(name, bloodType, true);\n        patientAddresses.push(msg.sender);\n        totalPatients++;\n        emit PatientRegistered(msg.sender, name, bloodType);\n    }\n\n    function locateHospitalToDonate(address hospitalAddress) public view returns (string memory name, address location) {\n        require(hospitals[hospitalAddress].isRegistered, \"Hospital not registered\");\n        return (hospitals[hospitalAddress].name, hospitals[hospitalAddress].location);\n    }\n    function donateBlood(BloodType bloodType, uint amount) public {\n    require(donors[msg.sender].isRegistered, \"Donor not registered\");       \n    // Assuming a simplified storage for blood donation amounts\n    donorBalances[msg.sender][bloodType]++;\n    totalBloodDonated += amount;  // Increment the total blood donated\n    emit BloodDonated(msg.sender, bloodType, amount);\n}\n\n    // Function to get the total amount of blood donated\n    function getTotalBloodDonated() public view returns (uint) {\n        return totalBloodDonated;\n    }\n\n    // Function to get the blood inventory for a specific blood type\n    function getBloodInventory(BloodType bloodType) public view returns (uint) {\n        return bloodInventory[bloodType];\n    }\n\nfunction requestBlood(BloodType bloodType, uint amount) public {\n    require(patients[msg.sender].isRegistered, \"You need to register as a patient first\");\n    // Create a new request object\n    Request memory newRequest = Request({\n        isResponded: false,\n        bloodType: bloodType,\n        amount: amount,\n        response: false\n    });\n    // Add the request to the patient's requests\n    patientRequests[msg.sender][newRequest.bloodType].push(newRequest);\n    // Emit blood request event with the entire request object\n    emit BloodRequested(msg.sender, newRequest);\n}\n\nfunction getPatientRequests(address patientAddress, BloodType bloodType) public view returns (Request[] memory) {\n    Request[] storage requests = patientRequests[patientAddress][bloodType];\n    Request[] memory result = new Request[](requests.length);\n    for (uint i = 0; i < requests.length; i++) {\n        result[i] = requests[i];\n    }\n    return result;\n}\n\n function respondToRequest(address patientAddress, BloodType bloodType, bool response) public {\n    require(patients[patientAddress].isRegistered, \"Patient not registered\");\n    require(patientRequests[patientAddress][bloodType].length > 0, \"No blood donation request found\");\n\n    // Get the last request made by the patient\n    Request storage lastRequest = patientRequests[patientAddress][bloodType][patientRequests[patientAddress][bloodType].length - 1];\n\n    // Update the response for the last request\n    lastRequest.isResponded = true;\n    lastRequest.response = response;\n\n    // Store the response\n    patientResponses[patientAddress].push(lastRequest);\n\n    // Emit event for responding to blood donation request\n    emit RequestResponded(patientAddress, response, lastRequest.bloodType, lastRequest.amount);\n}\n\n    // Add a function to retrieve patient responses\n    function getPatientResponses(address patientAddress) public view returns (Request[] memory) {\n        return patientResponses[patientAddress];\n    }\n        function getRegisteredUsers() public view returns (address[] memory registeredDonors, address[] memory registeredPatients) {\n        return (donorAddresses, patientAddresses);\n    }\n}",
  "sourcePath": "D:\\bill\\projectbackup\\late latest\\BloodBank\\contracts\\BloodBank.sol",
  "compiler": {
    "name": "solc",
    "version": "0.8.0+commit.c7dfd78e.Emscripten.clang"
  },
  "schemaVersion": "3.4.16",
  "updatedAt": "2023-11-24T12:05:06.357Z",
  "networkType": "ethereum",
  "devdoc": {
    "kind": "dev",
    "methods": {},
    "version": 1
  },
  "userdoc": {
    "kind": "user",
    "methods": {},
    "version": 1
  }
}